02RETORNO01COBRANCA       924800310592        RECIFE DOCES C LTDA EPP       341BANCO ITAU S.A.31012501600BPI01216310125                                                                                                                                                                                                       000001
10202678694000227924800310592	1 0014397067 2	00788481	109007884810	I063101252094879-2	00788481	31012500000023857843416942701000000000009800000000000000000000000000000000000000000000000000000000000000000000000238568600000000000000000000000000	31012500000000000000000000000ATACAREJO DE ALIMENTOS IDEAL C	BL000002
10202678694000227924800310592	1 0014441092 3	00800567	109008005670	I063101252110322-3	00800567	31012500000001779972373205201000000000009800000000000000000000000000000000000000000000000000000000000000000000000017789900000000000000000000000000	31012500000000000000000000000COMERCIAL DE ALIMENTOS DOM LUI	B1000003
10202678694000227924800310592	1 0014441094 3	00800570	109008005704	I063101252110323-3	00800570	31012500000002009272373205201000000000009800000000000000000000000000000000000000000000000000000000000000000000000020082900000000000000000000000000	31012500000000000000000000000COMERCIAL DE ALIMENTOS DOM LUI	B1000004
10202678694000227924800310592	1 0014441096 3	00800573	109008005738	I063101252110324-3	00800573	31012500000000441362373205201000000000009800000000000000000000000000000000000000000000000000000000000000000000000004403800000000000000000000000000	31012500000000000000000000000COMERCIAL DE ALIMENTOS DOM LUI	B1000005
10202678694000227924800310592	1 0014446799 2	00801665	109008016651	I063101252111645-2	00801665	28012500000000778683419249401000000000009800000000000000000000000000000000000000000000000000000000000000000000000007777000000000000000000000000000	31012500000000000000000000000FELIX COMERCIO DE ALIMENTOS LT	BL000006
10202678694000227924800310592	1 0014449131 1	00802128	109008021289	I063101252112388-1	00802128	31012500000003002310014118601000000000009800000000000000000000000000000000000000000000000000000000000000000000000030013300000000000000000000000000	31012500000000000000000000000SUPERMERCADO DUVALLE LTDA EPP	B5000007
10202678694000227924800310592	1 0014449167 1	00802141	109008021412	I063101252112405-1	00802141	31012500000001067773418302201000000000009800000000000000000000000000000000000000000000000000000000000000000000000010667900000000000000000000000000	31012500000000000000000000000MERCANTIL REAL LTDA	BL000008
10202678694000227924800310592	1 0014449163 1	00802173	109008021735	I063101252112413-1	00802173	31012500000001739713418302201000000000009800000000000000000000000000000000000000000000000000000000000000000000000017387300000000000000000000000000	31012500000000000000000000000MERCANTIL REAL LTDA	BL000009
10202678694000227924800310592	1 0014453058 1	00803246	109008032468	I06310125144530581	00803246	03022500000000836432372169101000000000009800000000000000000000000000000000000000000000000000000000000000000000000008354500000000000000000000000000	31012500000000000000000000000JERONINO VALDEVINO	B5000010
10202678694000227924800310592	1 0014453088 1	00803263	109008032633	I06310125144530881	00803263	06022500000000677741040915901000000000009800000000000000000000000000000000000000000000000000000000000000000000000006767600000000000000000000000000	31012500000000000000000000000LUZIA BEZERRA DE ALMEIDA	B5000011
10202678694000227924800310592	1 0014453090 1	00803264	109008032641	I06310125144530901	00803264	06022500000002193661040915901000000000009800000000000000000000000000000000000000000000000000000000000000000000000021926800000000000000000000000000	31012500000000000000000000000LUZIA BEZERRA DE ALMEIDA	B5000012
10202678694000227924800310592	1 0014453364 3	00804151	109008041519	I06310125144533643	00804151	06022500000000109533410773201000000000009800000000000000000000000000000000000000000000000000000000000000000000000001085500000000000000000000000000	31012500000000000000000000000BOMAIS DOCES & CHOCOLATES LTDA	BL000013
10202678694000227924800310592	1 0014455415 1	00804284	109008042848	I06310125144554151	00804284	31012500000000180386230001801000000000009800000000000000000000000000000000000000000000000000000000000000000000000001794000000000000000000000000000	3101250000000000000000000000052.352.373 RONALDO PEREIRA DOS	B1000014
10202678694000227924800310592	1 0014455417 1	00804285	109008042855	I06310125144554171	00804285	31012500000000609501040045501000000000009800000000000000000000000000000000000000000000000000000000000000000000000006085200000000000000000000000000	3101250000000000000000000000058.548.088 MARIA EDUARDA MENDE	B5000015
10202678694000227924800310592	1 0014455453 1	00804301	109008043010	I06310125144554531	00804301	31012500000000189811040048901000000000009800000000000000000000000000000000000000000000000000000000000000000000000001888300000000000000000000000000	31012500000000000000000000000CLAUDEMIR JOSE DA SILVA BOMBON	B5000016
10202678694000227924800310592	1 0014455457 2	00804304	109008043044	I06310125144554572	00804304	31012500000000099411040048901000000000009800000000000000000000000000000000000000000000000000000000000000000000000000984300000000000000000000000000	31012500000000000000000000000CLAUDEMIR JOSE DA SILVA BOMBON	B5000017
10202678694000227924800310592	1 0014455459 1	00804305	109008043051	I06310125144554591	00804305	31012500000000383120810001801000000000009800000000000000000000000000000000000000000000000000000000000000000000000003821400000000000000000000000000	31012500000000000000000000000NADJANE MATIAS VASCONCELLOS	B9000018
10202678694000227924800310592	1 0014455433 1	00804308	109008043085	I06310125144554331	00804308	31012500000000673302600001801000000000009800000000000000000000000000000000000000000000000000000000000000000000000006723200000000000000000000000000	31012500000000000000000000000DELMA PEREIRA DA SILVA RODRIGU	B1000019
10202678694000227924800310592	1 0014455469 1	00804311	109008043119	I06310125144554691	00804311	31012500000000615100333909901000000000009800000000000000000000000000000000000000000000000000000000000000000000000006141200000000000000000000000000	31012500000000000000000000000E.L. BARBOSA - BOMBONIERE ME	B1000020
10202678694000227924800310592	1 0014455471 1	00804312	109008043127	I06310125144554711	00804312	31012500000000353681040923301000000000009800000000000000000000000000000000000000000000000000000000000000000000000003527000000000000000000000000000	31012500000000000000000000000E.L. BARBOSA - BOMBONIERE ME	B5000021
10202678694000227924800310592	1 0014455483 2	00804316	109008043168	I06310125144554832	00804316	07022500000000605315090001801000000000009800000000000000000000000000000000000000000000000000000000000000000000000006043300000000000000000000000000	31012500000000000000000000000ELIEL MENDES DA SILVA 02484802	B9000022
10202678694000227924800310592	1 0014455479 1	00804317	109008043176	I06310125144554791	00804317	31012500000001749082371599001000000000009800000000000000000000000000000000000000000000000000000000000000000000000017481000000000000000000000000000	31012500000000000000000000000CRISTIANE KELLY GARRIDO ARAUJO	B1000023
10202678694000227924800310592	1 0014455267 2	00804322	109008043226	I06310125144552672	00804322	31012500000001556323418302201000000000009800000000000000000000000000000000000000000000000000000000000000000000000015553400000000000000000000000000	31012500000000000000000000000FOOD MARKET CONVENIENCIAS EIRE	BL000024
10202678694000227924800310592	1 0014455269 1	00804323	109008043234	I06310125144552691	00804323	31012500000001440307482755701000000000009800000000000000000000000000000000000000000000000000000000000000000000000014393200000000000000000000000000	31012500000000000000000000000IRENE P. BARROS CONVENIENCIAS	B1000025
10202678694000227924800310592	1 0014455273 1	00804325	109008043259	I06310125144552731	00804325	31012500000000331515090001801000000000009800000000000000000000000000000000000000000000000000000000000000000000000003305300000000000000000000000000	31012500000000000000000000000ANDERSON TAVARES BARBOSA	B9000026
10202678694000227924800310592	1 0014455337 1	00804328	109008043283	I06310125144553371	00804328	31012500000000412221040648601000000000009800000000000000000000000000000000000000000000000000000000000000000000000004112400000000000000000000000000	31012500000000000000000000000SEGREDOS DO TRIGO LTDA ME	B5000027
10202678694000227924800310592	1 0014455383 1	00804343	109008043432	I06310125144553831	00804343	31012500000000493860014844701000000000009800000000000000000000000000000000000000000000000000000000000000000000000004928800000000000000000000000000	31012500000000000000000000000TAVARES COMERCIO DE DOCES LTDA	B1000028
10202678694000227924800310592	1 0014455385 1	00804344	109008043440	I06310125144553851	00804344	31012500000000707880014844701000000000009800000000000000000000000000000000000000000000000000000000000000000000000007069000000000000000000000000000	31012500000000000000000000000TAVARES COMERCIO DE DOCES LTDA	B1000029
10202678694000227924800310592	1 0014455389 1	00804345	109008043457	I06310125144553891	00804345	31012500000000243931040648601000000000009800000000000000000000000000000000000000000000000000000000000000000000000002429500000000000000000000000000	31012500000000000000000000000ARANDES GOMES DE SOUZA	B5000030
10202678694000227924800310592	1 0014455391 1	00804346	109008043465	I06310125144553911	00804346	31012500000000408061040648601000000000009800000000000000000000000000000000000000000000000000000000000000000000000004070800000000000000000000000000	31012500000000000000000000000ROSELI MARIA BENTO DE SOUZA	B5000031
10202678694000227924800310592	1 0014455405 1	00804355	109008043556	I06310125144554051	00804355	31012500000000199001040648601000000000009800000000000000000000000000000000000000000000000000000000000000000000000001980200000000000000000000000000	31012500000000000000000000000JAILSON PESSOA CAVALCANTE 6173	B5000032
10202678694000227924800310592	1 0014455407 1	00804357	109008043572	I06310125144554071	00804357	31012500000000557361040648601000000000009800000000000000000000000000000000000000000000000000000000000000000000000005563800000000000000000000000000	31012500000000000000000000000JAILSON PESSOA CAVALCANTE 6173	B5000033
10202678694000227924800310592	1 0014455343 2	00804361	109008043614	I06310125144553432	00804361	31012500000000064643417226401000000000009800000000000000000000000000000000000000000000000000000000000000000000000000636600000000000000000000000000	31012500000000000000000000000DELICATESSEM VIBEL INDUSTRIA D	BL000034
10202678694000227924800310592	1 0014455373 1	00804362	109008043622	I06310125144553731	00804362	31012500000000354041040648601000000000009800000000000000000000000000000000000000000000000000000000000000000000000003530600000000000000000000000000	31012500000000000000000000000WELLINGTON FRANCISCO COSTA 178	B5000035
10202678694000227924800310592	1 0014454835 1	00804364	109008043648	I06310125144548351	00804364	31012500000000177382376043401000000000009800000000000000000000000000000000000000000000000000000000000000000000000001764000000000000000000000000000	31012500000000000000000000000J. A. P. DA SILVA LANCHONETE E	B1000036
10202678694000227924800310592	1 0014454837 1	00804365	109008043655	I06310125144548371	00804365	31012500000000532792376043401000000000009800000000000000000000000000000000000000000000000000000000000000000000000005318100000000000000000000000000	31012500000000000000000000000J. A. P. DA SILVA LANCHONETE E	B1000037
10202678694000227924800310592	1 0014454857 2	00804374	109008043747	I06310125144548572	00804374	31012500000001248215090001801000000000009800000000000000000000000000000000000000000000000000000000000000000000000012472300000000000000000000000000	31012500000000000000000000000RIOMAR SUPERMERCADOS EIRELI	B9000038
10202678694000227924800310592	1 0014454873 1	00804382	109008043820	I06310125144548731	00804382	31012500000000907650790001801000000000009800000000000000000000000000000000000000000000000000000000000000000000000009066700000000000000000000000000	31012500000000000000000000000A GRAVATAENSE BEBIDAS & CONVEN	B9000039
10202678694000227924800310592	1 0014454875 1	00804383	109008043838	I06310125144548751	00804383	31012500000001203490790001801000000000009800000000000000000000000000000000000000000000000000000000000000000000000012025100000000000000000000000000	31012500000000000000000000000A GRAVATAENSE BEBIDAS & CONVEN	B9000040
10202678694000227924800310592	1 0014454879 1	00804384	109008043846	I06310125144548791	00804384	31012500000001845375090001801000000000009800000000000000000000000000000000000000000000000000000000000000000000000018443900000000000000000000000000	31012500000000000000000000000R ALVES DOS SANTOS SUPERMERCAD	B9000041
10202678694000227924800310592	1 0014454881 1	00804386	109008043861	I06310125144548811	00804386	31012500000001429725090001801000000000009800000000000000000000000000000000000000000000000000000000000000000000000014287400000000000000000000000000	31012500000000000000000000000R ALVES DOS SANTOS SUPERMERCAD	B9000042
10202678694000227924800310592	1 0014454883 1	00804388	109008043887	I06310125144548831	00804388	31012500000000108813418933401000000000009800000000000000000000000000000000000000000000000000000000000000000000000001078300000000000000000000000000	31012500000000000000000000000R ALVES DOS SANTOS SUPERMERCAD	CI000043
10202678694000227924800310592	1 0014454885 1	00804390	109008043903	I06310125144548851	00804390	31012500000000795380013924801000000000009800000000000000000000000000000000000000000000000000000000000000000000000007944000000000000000000000000000	31012500000000000000000000000RENATA SUELI PRIMO ME	B1000044
10202678694000227924800310592	1 0014454923 1	00804405	109008044059	I06310125144549231	00804405	31012500000000617693412525401000000000009800000000000000000000000000000000000000000000000000000000000000000000000006167100000000000000000000000000	31012500000000000000000000000NORDESTE COMERCIO DE VAREJO LT	BL000045
10202678694000227924800310592	1 0014454925 1	00804406	109008044067	I06310125144549251	00804406	31012500000000538493412525401000000000009800000000000000000000000000000000000000000000000000000000000000000000000005375100000000000000000000000000	31012500000000000000000000000NORDESTE COMERCIO DE VAREJO LT	BL000046
10202678694000227924800310592	1 0014454941 1	00804413	109008044133	I06310125144549411	00804413	31012500000000775246330001801000000000009800000000000000000000000000000000000000000000000000000000000000000000000007742600000000000000000000000000	31012500000000000000000000000WILLIAN NASCIMENTO SANTOS	B9000047
10202678694000227924800310592	1 0014454953 1	00804418	109008044182	I06310125144549531	00804418	31012500000000706890790001801000000000009800000000000000000000000000000000000000000000000000000000000000000000000007059100000000000000000000000000	31012500000000000000000000000SUEVYSSON KARLOS DE ARAUJO SIL	B9000048
10202678694000227924800310592	1 0014454957 1	00804420	109008044208	I06310125144549571	00804420	31012500000001604391042124601000000000009800000000000000000000000000000000000000000000000000000000000000000000000016034100000000000000000000000000	31012500000000000000000000000MERCEARIA QUEBRA GALHO LTDA	B5000049
10202678694000227924800310592	1 0014454959 1	00804421	109008044216	I06310125144549591	00804421	31012500000000458702373202901000000000009800000000000000000000000000000000000000000000000000000000000000000000000004577200000000000000000000000000	31012500000000000000000000000AUTO POSTO COSTA DOURADA LTDA	B1000050
10202678694000227924800310592	1 0014454963 1	00804422	109008044224	I06310125144549631	00804422	31012500000000998932373202901000000000009800000000000000000000000000000000000000000000000000000000000000000000000009979500000000000000000000000000	31012500000000000000000000000AUTO POSTO COSTA DOURADA LTDA	B1000051
10202678694000227924800310592	1 0014454861 2	00804424	109008044240	I06310125144548612	00804424	31012500000000927295090001801000000000009800000000000000000000000000000000000000000000000000000000000000000000000009263100000000000000000000000000	31012500000000000000000000000RIOMAR SUPERMERCADOS EIRELI	B9000052
10202678694000227924800310592	1 0014454921 1	00804426	109008044265	I06310125144549211	00804426	31012500000000388991042124601000000000009800000000000000000000000000000000000000000000000000000000000000000000000003880100000000000000000000000000	31012500000000000000000000000VALDOMIRO JOSE DA SILVA	B5000053
10202678694000227924800310592	1 0014454795 1	00804438	109008044380	I06310125144547951	00804438	31012500000001534050334030301000000000009800000000000000000000000000000000000000000000000000000000000000000000000015330700000000000000000000000000	31012500000000000000000000000GPS COMERCIO DE BOMBONS LTDA E	B1000054
10202678694000227924800310592	1 0014454811 2	00804445	109008044455	I06310125144548112	00804445	31012500000001033471042125301000000000009800000000000000000000000000000000000000000000000000000000000000000000000010324900000000000000000000000000	31012500000000000000000000000V. M. A. DE OLIVEIRA - BOMBONI	B5000055
10202678694000227924800310592	1 0014454821 1	00804448	109008044489	I06310125144548211	00804448	31012500000000286683418419401000000000009800000000000000000000000000000000000000000000000000000000000000000000000002857000000000000000000000000000	31012500000000000000000000000AGT CONVENIENCIA LTDA	BL000056
10202678694000227924800310592	1 0014455583 2	00804462	109008044620	I06310125144555832	00804462	31012500000000920463410478801000000000009800000000000000000000000000000000000000000000000000000000000000000000000009194800000000000000000000000000	31012500000000000000000000000STENIO POLLYCARPO ALMEIDA E PO	BL000057
10202678694000227924800310592	1 0014455589 2	00804467	109008044679	I06310125144555892	00804467	31012500000000510911040559501000000000009800000000000000000000000000000000000000000000000000000000000000000000000005099300000000000000000000000000	31012500000000000000000000000G KESIA ALVES DA SILVA	B1000058
10202678694000227924800310592	1 0014455593 2	00804469	109008044695	I06310125144555932	00804469	31012500000000659400810001801000000000009800000000000000000000000000000000000000000000000000000000000000000000000006584200000000000000000000000000	31012500000000000000000000000MARIA DE LURDES SANTOS DA SILV	B9000059
10202678694000227924800310592	1 0014455603 1	00804472	109008044729	I06310125144556031	00804472	31012500000001031543416999701000000000009800000000000000000000000000000000000000000000000000000000000000000000000010305600000000000000000000000000	31012500000000000000000000000LOJA DE CONVENIENCIA COSTA DOU	BL000060
10202678694000227924800310592	1 0014455605 1	00804473	109008044737	I06310125144556051	00804473	31012500000000657083416999701000000000009800000000000000000000000000000000000000000000000000000000000000000000000006561000000000000000000000000000	31012500000000000000000000000LOJA DE CONVENIENCIA COSTA DOU	BL000061
10202678694000227924800310592	1 0014455617 1	00804480	109008044802	I06310125144556171	00804480	31012500000000448705090001801000000000009800000000000000000000000000000000000000000000000000000000000000000000000004477200000000000000000000000000	31012500000000000000000000000FERNANDA F DA SILVA - DROGARIA	B9000062
10202678694000227924800310592	1 0014455599 2	00804483	109008044836	I06310125144555992	00804483	31012500000000812911040559501000000000009800000000000000000000000000000000000000000000000000000000000000000000000008119300000000000000000000000000	31012500000000000000000000000FARMACIA PAGUE BEM LTDA	B5000063
10202678694000227924800310592	1 0014455485 1	00804484	109008044844	I06310125144554851	00804484	31012500000001197353417227201000000000009800000000000000000000000000000000000000000000000000000000000000000000000011963700000000000000000000000000	31012500000000000000000000000MULTI POSTO OUTLET COMERCIO DE	BL000064
10202678694000227924800310592	1 0014455511 1	00804493	109008044935	I06310125144555111	00804493	31012500000000335380010233701000000000009800000000000000000000000000000000000000000000000000000000000000000000000003344000000000000000000000000000	31012500000000000000000000000SANDRES FILHO & CIA LOJA DE CO	B1000065
10202678694000227924800310592	1 0014455513 1	00804494	109008044943	I06310125144555131	00804494	31012500000000097260010233701000000000009800000000000000000000000000000000000000000000000000000000000000000000000000962800000000000000000000000000	31012500000000000000000000000SANDRES FILHO & CIA LOJA DE CO	B1000066
10202678694000227924800310592	1 0014455515 1	00804495	109008044950	I06310125144555151	00804495	31012500000001583270010233701000000000009800000000000000000000000000000000000000000000000000000000000000000000000015822900000000000000000000000000	31012500000000000000000000000P.D.I. SELECT CONVENIENCIA LTD	B1000067
10202678694000227924800310592	1 0014455517 1	00804496	109008044968	I06310125144555171	00804496	31012500000000926480010233701000000000009800000000000000000000000000000000000000000000000000000000000000000000000009255000000000000000000000000000	31012500000000000000000000000P.D.I. SELECT CONVENIENCIA LTD	B1000068
10202678694000227924800310592	1 0014455523 2	00804500	109008045007	I06310125144555232	00804500	31012500000000796675090001801000000000009800000000000000000000000000000000000000000000000000000000000000000000000007956900000000000000000000000000	31012500000000000000000000000JOSE BORBA DE ARAUJO MERCADINH	B9000069
10202678694000227924800310592	1 0014455533 1	00804506	109008045064	I06310125144555331	00804506	31012500000002299251040626201000000000009800000000000000000000000000000000000000000000000000000000000000000000000022982700000000000000000000000000	31012500000000000000000000000V M DA CRUZ SUPERMERCADO LTDA	B5000070
10202678694000227924800310592	1 0014455679 1	00804541	109008045411	I06310125144556791	00804541	31012500000000328251043122901000000000009800000000000000000000000000000000000000000000000000000000000000000000000003272700000000000000000000000000	31012500000000000000000000000VAREJAO DOS FRIOS LTDA	B1000071
10202678694000227924800310592	1 0014455683 1	00804545	109008045452	I06310125144556831	00804545	31012500000000319411043122901000000000009800000000000000000000000000000000000000000000000000000000000000000000000003184300000000000000000000000000	31012500000000000000000000000MERCADINHO SO FRIOS LTDA	B1000072
10202678694000227924800310592	1 0014455687 3	00804550	109008045502	I06310125144556873	00804550	31012500000000433740810001801000000000009800000000000000000000000000000000000000000000000000000000000000000000000004327600000000000000000000000000	31012500000000000000000000000JANEIRY PAIXAO DE MENDONCA	B9000073
10202678694000227924800310592	1 0014455949 2	00804565	109008045650	I06310125144559492	00804565	31012500000000675192371599001000000000009800000000000000000000000000000000000000000000000000000000000000000000000006742100000000000000000000000000	31012500000000000000000000000ALEXSANDRO E JOSEFA COMERCIO V	B1000074
10202678694000227924800310592	1 0014455959 2	00804571	109008045718	I06310125144559592	00804571	31012500000000503612372798701000000000009800000000000000000000000000000000000000000000000000000000000000000000000005026300000000000000000000000000	31012500000000000000000000000PETROCAL PETROLEO CAVALCANTI L	B1000075
10202678694000227924800310592	1 0014455971 2	00804576	109008045767	I06310125144559712	00804576	31012500000000292902371599001000000000009800000000000000000000000000000000000000000000000000000000000000000000000002919200000000000000000000000000	31012500000000000000000000000CREUSA S. A. DA SILVA COMERCIO	B1000076
10202678694000227924800310592	1 0014455973 2	00804578	109008045783	I06310125144559732	00804578	31012500000000161320010821901000000000009800000000000000000000000000000000000000000000000000000000000000000000000001603400000000000000000000000000	31012500000000000000000000000DEYVISON P DE MELO FARMACIA	B5000077
10202678694000227924800310592	1 0014455975 1	00804579	109008045791	I06310125144559751	00804579	31012500000000608240333737401000000000009800000000000000000000000000000000000000000000000000000000000000000000000006072600000000000000000000000000	31012500000000000000000000000DROGATIM DROGARIAS LTDA	B7000078
10202678694000227924800310592	1 0014455979 2	00804582	109008045825	I06310125144559792	00804582	31012500000000127665090001801000000000009800000000000000000000000000000000000000000000000000000000000000000000000001266800000000000000000000000000	31012500000000000000000000000GRAO A GRANEL MERCADO NATURAL	B9000079
10202678694000227924800310592	1 0014455981 1	00804583	109008045833	I06310125144559811	00804583	31012500000000253312376298401000000000009800000000000000000000000000000000000000000000000000000000000000000000000002523300000000000000000000000000	31012500000000000000000000000LGL SUPERMERCADO EIRELI	B1000080
10202678694000227924800310592	1 0014455983 2	00804585	109008045858	I06310125144559832	00804585	31012500000001059462376298401000000000009800000000000000000000000000000000000000000000000000000000000000000000000010584800000000000000000000000000	31012500000000000000000000000LGL SUPERMERCADO EIRELI	B1000081
10202678694000227924800310592	1 0014455737 2	00804601	109008046013	I06310125144557372	00804601	31012500000000213600333757201000000000009800000000000000000000000000000000000000000000000000000000000000000000000002126200000000000000000000000000	31012500000000000000000000000RUBENI LENIO DOS SANTOS JUNIOR	B1000082
10202678694000227924800310592	1 0014455743 2	00804607	109008046070	I06310125144557432	00804607	31012500000000226450012988401000000000009800000000000000000000000000000000000000000000000000000000000000000000000002254700000000000000000000000000	31012500000000000000000000000J L I COMBUSTIVEIS LTDA	B1000083
10202678694000227924800310592	1 0014455745 2	00804609	109008046096	I06310125144557452	00804609	31012500000000975820012988401000000000009800000000000000000000000000000000000000000000000000000000000000000000000009748400000000000000000000000000	31012500000000000000000000000J L I COMBUSTIVEIS LTDA	B1000084
10202678694000227924800310592	1 0014455771 1	00804618	109008046187	I06310125144557711	00804618	31012500000000341150334156601000000000009800000000000000000000000000000000000000000000000000000000000000000000000003401700000000000000000000000000	31012500000000000000000000000PADARIA DIVINO PAO LTDA	B1000085
10202678694000227924800310592	1 0014455773 1	00804619	109008046195	I06310125144557731	00804619	31012500000000422320334156601000000000009800000000000000000000000000000000000000000000000000000000000000000000000004213400000000000000000000000000	31012500000000000000000000000PADARIA DIVINO PAO LTDA	B1000086
10202678694000227924800310592	1 0014455777 1	00804620	109008046203	I06310125144557771	00804620	31012500000000317155090001801000000000009800000000000000000000000000000000000000000000000000000000000000000000000003161700000000000000000000000000	31012500000000000000000000000M R DOS SANTOS	B9000087
10202678694000227924800310592	1 0014455783 1	00804624	109008046245	I06310125144557831	00804624	31012500000001577123419248601000000000009800000000000000000000000000000000000000000000000000000000000000000000000015761400000000000000000000000000	31012500000000000000000000000CMA PETROLEO LTDA	BL000088
10202678694000227924800310592	1 0014455785 1	00804625	109008046252	I06310125144557851	00804625	31012500000000264993419248601000000000009800000000000000000000000000000000000000000000000000000000000000000000000002640100000000000000000000000000	31012500000000000000000000000CMA PETROLEO LTDA	BL000089
10202678694000227924800310592	1 0014455791 2	00804628	109008046286	I06310125144557912	00804628	31012500000000362545090001801000000000009800000000000000000000000000000000000000000000000000000000000000000000000003615600000000000000000000000000	31012500000000000000000000000GELE PADARIA E COMERCIO LTDA	B9000090
10202678694000227924800310592	1 0014455803 1	00804631	109008046310	I06310125144558031	00804631	31012500000000342150333749901000000000009800000000000000000000000000000000000000000000000000000000000000000000000003411700000000000000000000000000	31012500000000000000000000000RICARDO HENRIQUE DA SILVA BEZE	B1000091
10202678694000227924800310592	1 0014455815 2	00804641	109008046419	I06310125144558152	00804641	31012500000000882640770001801000000000009800000000000000000000000000000000000000000000000000000000000000000000000008816600000000000000000000000000	31012500000000000000000000000MERCEARIA DA ILHA EIRELI	B1000092
10202678694000227924800310592	1 0014455735 2	00804643	109008046435	I06310125144557352	00804643	31012500000000209820333757201000000000009800000000000000000000000000000000000000000000000000000000000000000000000002088400000000000000000000000000	31012500000000000000000000000RUBENI LENIO DOS SANTOS JUNIOR	B1000093
10202678694000227924800310592	1 0014455161 1	00804647	109008046476	I06310125144551611	00804647	31012500000000700915090001801000000000009800000000000000000000000000000000000000000000000000000000000000000000000006999300000000000000000000000000	31012500000000000000000000000NATERCIO JOSE BOTELHO	B9000094
10202678694000227924800310592	1 0014455163 1	00804649	109008046492	I06310125144551631	00804649	31012500000000418755090001801000000000009800000000000000000000000000000000000000000000000000000000000000000000000004177700000000000000000000000000	31012500000000000000000000000NATERCIO JOSE BOTELHO	B9000095
10202678694000227924800310592	1 0014455167 1	00804652	109008046526	I06310125144551671	00804652	31012500000000137345090001801000000000009800000000000000000000000000000000000000000000000000000000000000000000000001363600000000000000000000000000	31012500000000000000000000000NATERCIO J BOTELHO	B9000096
10202678694000227924800310592	1 0014455171 1	00804653	109008046534	I06310125144551711	00804653	31012500000000263825090001801000000000009800000000000000000000000000000000000000000000000000000000000000000000000002628400000000000000000000000000	31012500000000000000000000000NATERCIO J BOTELHO	B9000097
10202678694000227924800310592	1 0014455173 1	00804654	109008046542	I06310125144551731	00804654	31012500000000254555090001801000000000009800000000000000000000000000000000000000000000000000000000000000000000000002535700000000000000000000000000	31012500000000000000000000000NATERCIO J BOTELHO	B9000098
10202678694000227924800310592	1 0014455181 1	00804655	109008046559	I06310125144551811	00804655	31012500000000252790332493501000000000009800000000000000000000000000000000000000000000000000000000000000000000000002518100000000000000000000000000	31012500000000000000000000000MERCADINHO MANANCIAL LTDA	B1000099
10202678694000227924800310592	1 0014455183 1	00804656	109008046567	I06310125144551831	00804656	31012500000000757950332493501000000000009800000000000000000000000000000000000000000000000000000000000000000000000007569700000000000000000000000000	31012500000000000000000000000MERCADINHO MANANCIAL LTDA	B1000100
10202678694000227924800310592	1 0014455185 1	00804657	109008046575	I06310125144551851	00804657	31012500000000681660332493501000000000009800000000000000000000000000000000000000000000000000000000000000000000000006806800000000000000000000000000	31012500000000000000000000000MERCADINHO MANANCIAL LTDA	B1000101
10202678694000227924800310592	1 0014455187 1	00804658	109008046583	I06310125144551871	00804658	31012500000000247880332493501000000000009800000000000000000000000000000000000000000000000000000000000000000000000002469000000000000000000000000000	31012500000000000000000000000MERCADINHO MANANCIAL LTDA	B1000102
10202678694000227924800310592	1 0014455193 1	00804661	109008046617	I06310125144551931	00804661	31012500000000062062600001801000000000009800000000000000000000000000000000000000000000000000000000000000000000000000610800000000000000000000000000	31012500000000000000000000000ANGELA MARIA DE OLIVEIRA 01470	B1000103
10202678694000227924800310592	1 0014455209 2	00804663	109008046633	I06310125144552092	00804663	31012500000001331725090001801000000000009800000000000000000000000000000000000000000000000000000000000000000000000013307400000000000000000000000000	31012500000000000000000000000ANGELO MACIO RODRIGUES DE FREI	B9000104
10202678694000227924800310592	1 0014455231 1	00804676	109008046765	I06310125144552311	00804676	31012500000001537762371230201000000000009800000000000000000000000000000000000000000000000000000000000000000000000015367800000000000000000000000000	31012500000000000000000000000PANIFICADORA PORTO PRIMO LTDA	B1000105
10202678694000227924800310592	1 0014455233 1	00804677	109008046773	I06310125144552331	00804677	31012500000002018802371230201000000000009800000000000000000000000000000000000000000000000000000000000000000000000020178200000000000000000000000000	31012500000000000000000000000PANIFICADORA PORTO PRIMO LTDA	B1000106
10202678694000227924800310592	1 0014455235 1	00804678	109008046781	I06310125144552351	00804678	31012500000000264970334039401000000000009800000000000000000000000000000000000000000000000000000000000000000000000002639900000000000000000000000000	31012500000000000000000000000RR FERRO PRODUTOS NATURAIS LTD	B1000107
10202678694000227924800310592	1 0014455237 1	00804679	109008046799	I06310125144552371	00804679	31012500000000140360334039401000000000009800000000000000000000000000000000000000000000000000000000000000000000000001393800000000000000000000000000	31012500000000000000000000000RR FERRO PRODUTOS NATURAIS LTD	B1000108
10202678694000227924800310592	1 0014455207 1	00804680	109008046807	I06310125144552071	00804680	31012500000000981695090001801000000000009800000000000000000000000000000000000000000000000000000000000000000000000009807100000000000000000000000000	31012500000000000000000000000ANGELO MACIO RODRIGUES DE FREI	B9000109
10202678694000227924800310592	1 0014455239 1	00804681	109008046815	I06310125144552391	00804681	31012500000000058040334039401000000000009800000000000000000000000000000000000000000000000000000000000000000000000000570600000000000000000000000000	31012500000000000000000000000RR FERRO PRODUTOS NATURAIS LTD	B1000110
10202678694000227924800310592	1 0014455243 1	00804684	109008046849	I06310125144552431	00804684	31012500000000152337560577701000000000009800000000000000000000000000000000000000000000000000000000000000000000000001513500000000000000000000000000	31012500000000000000000000000CAMARA DELICATESSEN LTDA	B1000111
10202678694000227924800310592	1 0014455245 1	00804685	109008046856	I06310125144552451	00804685	31012500000000155987560577701000000000009800000000000000000000000000000000000000000000000000000000000000000000000001550000000000000000000000000000	31012500000000000000000000000CAMARA DELICATESSEN LTDA	B1000112
10202678694000227924800310592	1 0014455247 1	00804686	109008046864	I06310125144552471	00804686	31012500000000320737560577701000000000009800000000000000000000000000000000000000000000000000000000000000000000000003197500000000000000000000000000	31012500000000000000000000000CAMARA DELICATESSEN LTDA	B1000113
10202678694000227924800310592	1 0014455255 1	00804689	109008046898	I06310125144552551	00804689	31012500000001539633411632901000000000009800000000000000000000000000000000000000000000000000000000000000000000000015386500000000000000000000000000	31012500000000000000000000000POSTO SERVICO DA FONTE	BL000114
10202678694000227924800310592	1 0014455253 1	00804691	109008046914	I06310125144552531	00804691	31012500000001044063411632901000000000009800000000000000000000000000000000000000000000000000000000000000000000000010430800000000000000000000000000	31012500000000000000000000000POSTO SERVICO DA FONTE	BL000115
10202678694000227924800310592	1 0014456209 1	00804694	109008046948	I06310125144562091	00804694	31012500000000163491040944901000000000009800000000000000000000000000000000000000000000000000000000000000000000000001625100000000000000000000000000	31012500000000000000000000000R G DA CUNHA PANIFICACAO	B5000116
10202678694000227924800310592	1 0014456233 2	00804708	109008047086	I06310125144562332	00804708	31012500000000249113410814401000000000009800000000000000000000000000000000000000000000000000000000000000000000000002481300000000000000000000000000	31012500000000000000000000000VIP POSTOS E SERVICOS LTDA	BL000117
10202678694000227924800310592	1 0014456235 2	00804710	109008047102	I06310125144562352	00804710	31012500000000171243416066501000000000009800000000000000000000000000000000000000000000000000000000000000000000000001702600000000000000000000000000	31012500000000000000000000000PAN VITORIA LTDA ME	BL000118
10202678694000227924800310592	1 0014456237 2	00804712	109008047128	I06310125144562372	00804712	31012500000000105183416066501000000000009800000000000000000000000000000000000000000000000000000000000000000000000001042000000000000000000000000000	31012500000000000000000000000PAN VITORIA LTDA ME	BL000119
10202678694000227924800310592	1 0014456251 2	00804717	109008047177	I06310125144562512	00804717	31012500000000172285090001801000000000009800000000000000000000000000000000000000000000000000000000000000000000000001713000000000000000000000000000	31012500000000000000000000000EDUARDO CORREIA DE OLIVEIRA	B9000120
10202678694000227924800310592	1 0014456255 1	00804718	109008047185	I06310125144562551	00804718	31012500000000157105090001801000000000009800000000000000000000000000000000000000000000000000000000000000000000000001561200000000000000000000000000	31012500000000000000000000000EDUARDO CORREIA DE OLIVEIRA	B9000121
10202678694000227924800310592	1 0014456257 1	00804719	109008047193	I06310125144562571	00804719	31012500000000277965090001801000000000009800000000000000000000000000000000000000000000000000000000000000000000000002769800000000000000000000000000	31012500000000000000000000000EDUARDO CORREIA DE OLIVEIRA	B9000122
10202678694000227924800310592	1 0014456273 1	00804726	109008047268	I06310125144562731	00804726	31012500000000957930334047701000000000009800000000000000000000000000000000000000000000000000000000000000000000000009569500000000000000000000000000	31012500000000000000000000000MERCADINHO CONFIANCA LTDA	B7000123
10202678694000227924800310592	1 0014456275 1	00804727	109008047276	I06310125144562751	00804727	31012500000001589820334047701000000000009800000000000000000000000000000000000000000000000000000000000000000000000015888400000000000000000000000000	31012500000000000000000000000MERCADINHO CONFIANCA LTDA	B7000124
10202678694000227924800310592	1 0014456285 3	00804734	109008047342	I06310125144562853	00804734	31012500000000391192373201101000000000009800000000000000000000000000000000000000000000000000000000000000000000000003902100000000000000000000000000	31012500000000000000000000000IGREJA BATISTA DO AMOR	B1000125
10202678694000227924800310592	1 0014456301 2	00804740	109008047409	I06310125144563012	00804740	31012500000000097156330001801000000000009800000000000000000000000000000000000000000000000000000000000000000000000000961700000000000000000000000000	31012500000000000000000000000PANIFICADORA EMPORIO EIRELI	B9000126
10202678694000227924800310592	1 0014456247 2	00804744	109008047441	I06310125144562472	00804744	31012500000000249035090001801000000000009800000000000000000000000000000000000000000000000000000000000000000000000002480500000000000000000000000000	31012500000000000000000000000EDNALDO PEREIRA DE ARAUJO	B9000127
10202678694000227924800310592	1 0014456277 1	00804745	109008047458	I06310125144562771	00804745	31012500000000683180334047701000000000009800000000000000000000000000000000000000000000000000000000000000000000000006822000000000000000000000000000	31012500000000000000000000000MERCADINHO CONFIANCA LTDA	B7000128
10202678694000227924800310592	1 0014454997 2	00804763	109008047631	I06310125144549972	00804763	31012500000000487685090001801000000000009800000000000000000000000000000000000000000000000000000000000000000000000004867000000000000000000000000000	31012500000000000000000000000JOSILENE L. CANDIDO LTDA	B9000129
10202678694000227924800310592	1 0014454999 2	00804765	109008047656	I06310125144549992	00804765	31012500000000274215090001801000000000009800000000000000000000000000000000000000000000000000000000000000000000000002732300000000000000000000000000	31012500000000000000000000000JOSILENE L. CANDIDO LTDA	B9000130
10202678694000227924800310592	1 0014455001 2	00804767	109008047672	I06310125144550012	00804767	31012500000001777715090001801000000000009800000000000000000000000000000000000000000000000000000000000000000000000017767300000000000000000000000000	31012500000000000000000000000JOSILENE L. CANDIDO LTDA	B9000131
10202678694000227924800310592	1 0014455003 1	00804769	109008047698	I06310125144550031	00804769	31012500000000719211040876301000000000009800000000000000000000000000000000000000000000000000000000000000000000000007182300000000000000000000000000	31012500000000000000000000000ERIK BARBOSA DA SILVA 08343252	B5000132
10202678694000227924800310592	1 0014455005 1	00804770	109008047706	I06310125144550051	00804770	31012500000001035721040876301000000000009800000000000000000000000000000000000000000000000000000000000000000000000010347400000000000000000000000000	31012500000000000000000000000ERIK BARBOSA DA SILVA 08343252	B5000133
10202678694000227924800310592	1 0014455009 2	00804773	109008047730	I06310125144550092	00804773	31012500000000389370011138701000000000009800000000000000000000000000000000000000000000000000000000000000000000000003883900000000000000000000000000	31012500000000000000000000000MR PETROLEO LTDA	B1000134
10202678694000227924800310592	1 0014455011 1	00804774	109008047748	I06310125144550111	00804774	31012500000001454393417227201000000000009800000000000000000000000000000000000000000000000000000000000000000000000014534100000000000000000000000000	31012500000000000000000000000P M C CINEMAS DO BRASIL LTDA	BL000135
10202678694000227924800310592	1 0014455013 1	00804776	109008047763	I06310125144550131	00804776	31012500000000104423417227201000000000009800000000000000000000000000000000000000000000000000000000000000000000000001034400000000000000000000000000	31012500000000000000000000000P M C CINEMAS DO BRASIL LTDA	BL000136
10202678694000227924800310592	1 0014455017 2	00804779	109008047797	I06310125144550172	00804779	31012500000000697703417728901000000000009800000000000000000000000000000000000000000000000000000000000000000000000006967200000000000000000000000000	31012500000000000000000000000S A R CAMPOS ME	BL000137
10202678694000227924800310592	1 0014455019 2	00804781	109008047813	I06310125144550192	00804781	31012500000000058573417728901000000000009800000000000000000000000000000000000000000000000000000000000000000000000000575900000000000000000000000000	31012500000000000000000000000S A R CAMPOS ME	BL000138
10202678694000227924800310592	1 0014455021 2	00804783	109008047839	I06310125144550212	00804783	31012500000000419163417728901000000000009800000000000000000000000000000000000000000000000000000000000000000000000004181800000000000000000000000000	31012500000000000000000000000S A R CAMPOS ME	BL000139
10202678694000227924800310592	1 0014455023 2	00804785	109008047854	I06310125144550232	00804785	31012500000000571143417728901000000000009800000000000000000000000000000000000000000000000000000000000000000000000005701600000000000000000000000000	31012500000000000000000000000S A R CAMPOS ME	BL000140
10202678694000227924800310592	1 0014455033 2	00804790	109008047904	I06310125144550332	00804790	31012500000000243931040876301000000000009800000000000000000000000000000000000000000000000000000000000000000000000002429500000000000000000000000000	31012500000000000000000000000ELIVANETE PAULINA DOS SANTOS	B5000141
10202678694000227924800310592	1 0014455295 2	00804815	109008048159	I06310125144552952	00804815	31012500000000209450334047701000000000009800000000000000000000000000000000000000000000000000000000000000000000000002084700000000000000000000000000	31012500000000000000000000000VAREJAO J F DA SILVA EIRELI	B1000142
10202678694000227924800310592	1 0014455323 2	00804819	109008048191	I06310125144553232	00804819	31012500000000342850018575301000000000009800000000000000000000000000000000000000000000000000000000000000000000000003418700000000000000000000000000	31012500000000000000000000000POSTO MAHALO COMERCIO DE COMBU	B1000143
10202678694000227924800310592	1 0014455283 1	00804825	109008048258	I06310125144552831	00804825	31012500000000212926330001801000000000009800000000000000000000000000000000000000000000000000000000000000000000000002119400000000000000000000000000	31012500000000000000000000000ANDREZA DIAS DA SILVA	B9000144
10202678694000227924800310592	1 0014456413 2	00804828	109008048282	I06310125144564132	00804828	31012500000000300263418322001000000000009800000000000000000000000000000000000000000000000000000000000000000000000002992800000000000000000000000000	31012500000000000000000000000FARMACIA PESSOA LTDA	BL000145
10202678694000227924800310592	1 0014456421 1	00804833	109008048332	I06310125144564211	00804833	31012500000000711790334022001000000000009800000000000000000000000000000000000000000000000000000000000000000000000007108100000000000000000000000000	31012500000000000000000000000MERCEARIA FIGUEIROA LTDA ME	B1000146
10202678694000227924800310592	1 0014456433 1	00804839	109008048399	I06310125144564331	00804839	31012500000000831730011836601000000000009800000000000000000000000000000000000000000000000000000000000000000000000008307500000000000000000000000000	31012500000000000000000000000PANIFICADORA SOLIMOES LTDA-ME	B1000147
10202678694000227924800310592	1 0014456435 1	00804840	109008048407	I06310125144564351	00804840	31012500000000112911040046301000000000009800000000000000000000000000000000000000000000000000000000000000000000000001119300000000000000000000000000	31012500000000000000000000000HILTANIA GOMES DOS SANTOS MIRA	B5000148
10202678694000227924800310592	1 0014456441 2	00804842	109008048423	I06310125144564412	00804842	31012500000000302573417728901000000000009800000000000000000000000000000000000000000000000000000000000000000000000003015900000000000000000000000000	31012500000000000000000000000J ROGERIO DE NOGUEIRA FILHO LT	BL000149
10202678694000227924800310592	1 0014456453 1	00804848	109008048480	I06310125144564531	00804848	31012500000000201610334039401000000000009800000000000000000000000000000000000000000000000000000000000000000000000002006300000000000000000000000000	31012500000000000000000000000M. M DE SOUZA CONVENIENCIA EIR	B1000150
10202678694000227924800310592	1 0014456455 1	00804849	109008048498	I06310125144564551	00804849	31012500000001974133417226401000000000009800000000000000000000000000000000000000000000000000000000000000000000000019731500000000000000000000000000	31012500000000000000000000000J B DA SILVA MINI-MERCADO ME	BL000151
10202678694000227924800310592	1 0014456437 1	00804857	109008048571	I06310125144564371	00804857	31012500000000374400810001801000000000009800000000000000000000000000000000000000000000000000000000000000000000000003734200000000000000000000000000	31012500000000000000000000000JM BOMBONZINHOS EIRELI	B9000152
10202678694000227924800310592	1 0014454781 2	00804859	109008048597	I06310125144547812	00804859	31012500000000626375090001801000000000009800000000000000000000000000000000000000000000000000000000000000000000000006253900000000000000000000000000	3101250000000000000000000000054.610.158 JAILSON JOSE DA SIL	B9000153
10202678694000227924800310592	1 0014455869 1	00804873	109008048738	I06310125144558691	00804873	31012500000000354420334478401000000000009800000000000000000000000000000000000000000000000000000000000000000000000003534400000000000000000000000000	31012500000000000000000000000PADARIA A COELHO LTDA	B1000154
10202678694000227924800310592	1 0014455873 1	00804875	109008048753	I06310125144558731	00804875	31012500000001786120334478401000000000009800000000000000000000000000000000000000000000000000000000000000000000000017851400000000000000000000000000	31012500000000000000000000000PADARIA A COELHO LTDA	B1000155
10202678694000227924800310592	1 0014455879 1	00804877	109008048779	I06310125144558791	00804877	31012500000000385673417227201000000000009800000000000000000000000000000000000000000000000000000000000000000000000003846900000000000000000000000000	31012500000000000000000000000PADARIA E PASTELARIA BOA VIAGE	BL000156
10202678694000227924800310592	1 0014455881 1	00804878	109008048787	I06310125144558811	00804878	31012500000000417480334661501000000000009800000000000000000000000000000000000000000000000000000000000000000000000004165000000000000000000000000000	31012500000000000000000000000ARNOSO SANTA MARIA DELICATESSE	B1000157
10202678694000227924800310592	1 0014455889 1	00804879	109008048795	I06310125144558891	00804879	31012500000000218583410364001000000000009800000000000000000000000000000000000000000000000000000000000000000000000002176000000000000000000000000000	31012500000000000000000000000MOLINO PADARIA EIRELI ME	BL000158
10202678694000227924800310592	1 0014455893 1	00804881	109008048811	I06310125144558931	00804881	31012500000000180550012811801000000000009800000000000000000000000000000000000000000000000000000000000000000000000001795700000000000000000000000000	31012500000000000000000000000ORGANIZACAO CONVENIENCIA SHOPP	B1000159
10202678694000227924800310592	1 0014455899 2	00804884	109008048845	I06310125144558992	00804884	31012500000000209955090001801000000000009800000000000000000000000000000000000000000000000000000000000000000000000002089700000000000000000000000000	31012500000000000000000000000M C C DE OLIVEIRA ROZA DE MELO	B9000160
10202678694000227924800310592	1 0014455901 1	00804885	109008048852	I06310125144559011	00804885	31012500000000255953410364001000000000009800000000000000000000000000000000000000000000000000000000000000000000000002549700000000000000000000000000	31012500000000000000000000000ENTRE AMIGOS O BODE LTDA	BL000161
10202678694000227924800310592	1 0014455903 1	00804886	109008048860	I06310125144559031	00804886	31012500000000213583410364001000000000009800000000000000000000000000000000000000000000000000000000000000000000000002126000000000000000000000000000	31012500000000000000000000000ENTRE AMIGOS O BODE LTDA	BL000162
10202678694000227924800310592	1 0014455913 1	00804889	109008048894	I06310125144559131	00804889	31012500000000456472373453801000000000009800000000000000000000000000000000000000000000000000000000000000000000000004554900000000000000000000000000	31012500000000000000000000000POSTO PETRO SHOP LTDA	B1000163
10202678694000227924800310592	1 0014455917 1	00804891	109008048910	I06310125144559171	00804891	31012500000000277450010582701000000000009800000000000000000000000000000000000000000000000000000000000000000000000002764700000000000000000000000000	31012500000000000000000000000PINGO DOCE QUITANDA LTDA	B1000164
10202678694000227924800310592	1 0014455927 1	00804894	109008048944	I06310125144559271	00804894	31012500000000834820810001801000000000009800000000000000000000000000000000000000000000000000000000000000000000000008338400000000000000000000000000	3101250000000000000000000000051.890.571 JOSINALDO SEVERINO	B9000165
10202678694000227924800310592	1 0014455933 2	00804896	109008048969	I06310125144559332	00804896	31012500000000446910334052701000000000009800000000000000000000000000000000000000000000000000000000000000000000000004459300000000000000000000000000	31012500000000000000000000000MINI MERCADO AGIL LTDA	B1000166
10202678694000227924800310592	1 0014455943 1	00804901	109008049017	I06310125144559431	00804901	31012500000000350683418644701000000000009800000000000000000000000000000000000000000000000000000000000000000000000003497000000000000000000000000000	31012500000000000000000000000GUARARAPES COMBUSTIVEIS LTDA	BL000167
10202678694000227924800310592	1 0014455945 1	00804902	109008049025	I06310125144559451	00804902	31012500000000830843419248601000000000009800000000000000000000000000000000000000000000000000000000000000000000000008298600000000000000000000000000	31012500000000000000000000000CEMOPEL CM PETROLEO LTDA	BL000168
10202678694000227924800310592	1 0014456357 2	00804925	109008049256	I06310125144563572	00804925	07022500000000672383417226401000000000009800000000000000000000000000000000000000000000000000000000000000000000000006714000000000000000000000000000	31012500000000000000000000000MERCADO AVENIDA EIRELI ME	BL000169
10202678694000227924800310592	1 0014456367 2	00804930	109008049306	I06310125144563672	00804930	31012500000000455620011850701000000000009800000000000000000000000000000000000000000000000000000000000000000000000004546400000000000000000000000000	31012500000000000000000000000VIANA E TONETTO LTDA	B1000170
10202678694000227924800310592	1 0014456369 2	00804933	109008049330	I06310125144563692	00804933	31012500000000756380011850701000000000009800000000000000000000000000000000000000000000000000000000000000000000000007554000000000000000000000000000	31012500000000000000000000000VIANA E TONETTO LTDA	B1000171
10202678694000227924800310592	1 0014456385 1	00804938	109008049389	I06310125144563851	00804938	31012500000000263280014118601000000000009800000000000000000000000000000000000000000000000000000000000000000000000002623000000000000000000000000000	31012500000000000000000000000ELINEIDE FELIX SILVA MERCEARIA	B1000172
10202678694000227924800310592	1 0014456389 1	00804939	109008049397	I06310125144563891	00804939	31012500000000267980014118601000000000009800000000000000000000000000000000000000000000000000000000000000000000000002670000000000000000000000000000	31012500000000000000000000000ELINEIDE FELIX SILVA MERCEARIA	B1000173
10202678694000227924800310592	1 0014456067 1	00804951	109008049512	I06310125144560671	00804951	31012500000000154743419248601000000000009800000000000000000000000000000000000000000000000000000000000000000000000001537600000000000000000000000000	31012500000000000000000000000ALIMENTOS UNIVERSO LTDA	BL000174
10202678694000227924800310592	1 0014456075 2	00804955	109008049553	I06310125144560752	00804955	31012500000000118643416878301000000000009800000000000000000000000000000000000000000000000000000000000000000000000001176600000000000000000000000000	31012500000000000000000000000MULTIFOOD ESPINHEIRO COMERCIO	BL000175
10202678694000227924800310592	1 0014456093 1	00804962	109008049629	I06310125144560931	00804962	31012500000001262213418302201000000000009800000000000000000000000000000000000000000000000000000000000000000000000012612300000000000000000000000000	31012500000000000000000000000COMPROFARMA COMERCIO ASSISTENC	BL000176
10202678694000227924800310592	1 0014456095 1	00804963	109008049637	I06310125144560951	00804963	31012500000001502303418302201000000000009800000000000000000000000000000000000000000000000000000000000000000000000015013200000000000000000000000000	31012500000000000000000000000COMPROFARMA COMERCIO ASSISTENC	BL000177
10202678694000227924800310592	1 0014456109 2	00804973	109008049736	I06310125144561092	00804973	31012500000000221673416318001000000000009800000000000000000000000000000000000000000000000000000000000000000000000002206900000000000000000000000000	3101250000000000000000000000049.346.282 MARIA JOSE DA SILVA	BL000178
10202678694000227924800310592	1 0014456137 2	00804984	109008049843	I06310125144561372	00804984	31012500000000649990334661501000000000009800000000000000000000000000000000000000000000000000000000000000000000000006490100000000000000000000000000	31012500000000000000000000000SUPERMERCADO DA PRACA LTDA	B1000179
10202678694000227924800310592	1 0014456143 2	00804990	109008049900	I06310125144561432	00804990	31012500000000571740334661501000000000009800000000000000000000000000000000000000000000000000000000000000000000000005707600000000000000000000000000	31012500000000000000000000000SUPERMERCADO DA PRACA LTDA	B1000180
10202678694000227924800310592	1 0014456175 2	00805001	109008050015	I06310125144561752	00805001	31012500000000257995090001801000000000009800000000000000000000000000000000000000000000000000000000000000000000000002570100000000000000000000000000	31012500000000000000000000000JEOCARLA JACIELE DO NASCIMENTO	B9000181
10202678694000227924800310592	1 0014456179 2	00805003	109008050031	I06310125144561792	00805003	31012500000000186060333749901000000000009800000000000000000000000000000000000000000000000000000000000000000000000001850800000000000000000000000000	31012500000000000000000000000JEOCARLA JACIELE DO NASCIMENTO	B1000182
10202678694000227924800310592	1 0014455993 1	00805012	109008050122	I06310125144559931	00805012	31012500000001001221040047101000000000009800000000000000000000000000000000000000000000000000000000000000000000000010002400000000000000000000000000	31012500000000000000000000000PADARIA E PASTELARIA MIRAMAR L	B5000183
10202678694000227924800310592	1 0014456031 1	00805026	109008050262	I06310125144560311	00805026	31012500000000602992372960301000000000009800000000000000000000000000000000000000000000000000000000000000000000000006020100000000000000000000000000	31012500000000000000000000000POSTO PG AEROPORTO LTDA	B1000184
10202678694000227924800310592	1 0014456033 1	00805027	109008050270	I06310125144560331	00805027	31012500000000285512372960301000000000009800000000000000000000000000000000000000000000000000000000000000000000000002845300000000000000000000000000	31012500000000000000000000000POSTO PG AEROPORTO LTDA	B1000185
10202678694000227924800310592	1 0014456045 2	00805034	109008050346	I06310125144560452	00805034	31012500000000586396330001801000000000009800000000000000000000000000000000000000000000000000000000000000000000000005854100000000000000000000000000	31012500000000000000000000000DIEGO HENRIQUE ALVES LEITE	B9000186
10202678694000227924800310592	1 0014455823 2	00805040	109008050403	I06310125144558232	00805040	31012500000000203740334056801000000000009800000000000000000000000000000000000000000000000000000000000000000000000002027600000000000000000000000000	31012500000000000000000000000FARIAS JUNIOR COMERCIO DE ALIM	B1000187
10202678694000227924800310592	1 0014455827 2	00805042	109008050429	I06310125144558272	00805042	31012500000000177470334056801000000000009800000000000000000000000000000000000000000000000000000000000000000000000001764900000000000000000000000000	31012500000000000000000000000FARIAS JUNIOR COMERCIO DE ALIM	B1000188
10202678694000227924800310592	1 0014455847 2	00805049	109008050494	I06310125144558472	00805049	31012500000000488393415633301000000000009800000000000000000000000000000000000000000000000000000000000000000000000004874100000000000000000000000000	31012500000000000000000000000SUPERMERCADO PONTE LTDA	BL000189
10202678694000227924800310592	1 0014455857 2	00805054	109008050544	I06310125144558572	00805054	31012500000000191950011837401000000000009800000000000000000000000000000000000000000000000000000000000000000000000001909700000000000000000000000000	31012500000000000000000000000CONVINIENCIA PRINCESA ISABEL L	B1000190
10202678694000227924800310592	1 0014455865 1	00805056	109008050569	I06310125144558651	00805056	31012500000000096921041583401000000000009800000000000000000000000000000000000000000000000000000000000000000000000000959400000000000000000000000000	31012500000000000000000000000PADARIA PAM MORRO EIRELI EPP	B5000191
10202678694000227924800310592	1 0014455867 1	00805057	109008050577	I06310125144558671	00805057	31012500000000325261041583401000000000009800000000000000000000000000000000000000000000000000000000000000000000000003242800000000000000000000000000	31012500000000000000000000000PADARIA PAM MORRO EIRELI EPP	B5000192
10202678694000227924800310592	1 0014455105 2	00805065	109008050650	I06310125144551052	00805065	31012500000000164825090001801000000000009800000000000000000000000000000000000000000000000000000000000000000000000001638400000000000000000000000000	31012500000000000000000000000JAIME G. SOARES NETO - MERCEAR	B9000193
10202678694000227924800310592	1 0014455111 2	00805070	109008050700	I06310125144551112	00805070	31012500000000414145090001801000000000009800000000000000000000000000000000000000000000000000000000000000000000000004131600000000000000000000000000	31012500000000000000000000000JAIME G. SOARES NETO - MERCEAR	B9000194
10202678694000227924800310592	1 0014455135 1	00805080	109008050809	I06310125144551351	00805080	31012500000000368893411594101000000000009800000000000000000000000000000000000000000000000000000000000000000000000003679100000000000000000000000000	31012500000000000000000000000BRAZ GOMES SILVA	BL000195
10202678694000227924800310592	1 0014455139 1	00805084	109008050841	I06310125144551391	00805084	31012500000000821123410814401000000000009800000000000000000000000000000000000000000000000000000000000000000000000008201400000000000000000000000000	31012500000000000000000000000B & S MERCADINHO LTDA	BL000196
10202678694000227924800310592	1 0014455149 1	00805089	109008050890	I06310125144551491	00805089	31012500000000524660334056801000000000009800000000000000000000000000000000000000000000000000000000000000000000000005236800000000000000000000000000	31012500000000000000000000000ERICKA MARIA DE OLIVEIRA MINIM	B1000197
10202678694000227924800310592	1 0014455151 1	00805090	109008050908	I06310125144551511	00805090	31012500000000184743417376701000000000009800000000000000000000000000000000000000000000000000000000000000000000000001837600000000000000000000000000	31012500000000000000000000000J C E E P COMERCIO VAR DE PAD	BL000198
10202678694000227924800310592	1 0014455153 1	00805091	109008050916	I06310125144551531	00805091	31012500000000592283417376701000000000009800000000000000000000000000000000000000000000000000000000000000000000000005913000000000000000000000000000	31012500000000000000000000000J C E E P COMERCIO VAR DE PAD	BL000199
10202678694000227924800310592	1 0014457544 1	00805206	109008052060	I06310125144575441	00805206	03022500000000639881043536001000000000009800000000000000000000000000000000000000000000000000000000000000000000000006389000000000000000000000000000	31012500000000000000000000000JOSE M. FERREIRA MERCADINHO	B5000200
10202678694000227924800310592	1 0014457572 1	00805218	109008052185	I06310125144575721	00805218	03022500000005652063410453101000000000009800000000000000000000000000000000000000000000000000000000000000000000000056510800000000000000000000000000	31012500000000000000000000000J BORBA & CIA LTDA	BL000201
10202678694000227924800310592	1 0014457198 1	00805325	109008053258	I06310125144571981	00805325	03022500000001210003417376701000000000009800000000000000000000000000000000000000000000000000000000000000000000000012090200000000000000000000000000	31012500000000000000000000000EMANUELA MELO DA SILVA ALIMENT	BL000202
10202678694000227924800310592	1 0014456676 3	00805393	109008053936	I06310125144566763	00805393	03022500000000129391040678301000000000009800000000000000000000000000000000000000000000000000000000000000000000000001284100000000000000000000000000	31012500000000000000000000000MARIA JOSE DA SILVA 4936379441	B5000203
10202678694000227924800310592	1 0014456678 1	00805394	109008053944	I06310125144566781	00805394	03022500000000124751040678301000000000009800000000000000000000000000000000000000000000000000000000000000000000000001237700000000000000000000000000	31012500000000000000000000000JOSINEIDE LEVINO DA SILVA 0542	B5000204
10202678694000227924800310592	1 0014456892 1	00805507	109008055071	I06310125144568921	00805507	10022500000000258203418435001000000000009800000000000000000000000000000000000000000000000000000000000000000000000002572200000000000000000000000000	31012500000000000000000000000G C SALES	BL000205
10202678694000227924800310592	1 0014456894 1	00805508	109008055089	I06310125144568941	00805508	10022500000000918963418435001000000000009800000000000000000000000000000000000000000000000000000000000000000000000009179800000000000000000000000000	31012500000000000000000000000G C SALES	BL000206
10202678694000227924800310592	1 0014455393 2	00804348	109008043481	I10310125144553932	00804348	31012500000000309213417766901000000000000000000000000000000000000000000000000000000000000000000000000000000000000003092100000000000000000000000000	00000000000000000000000SEBASTIAO FELIPE DE MELO PINTO	000207
10202678694000227924800310592	1 0014455395 2	00804350	109008043507	I10310125144553952	00804350	31012500000000240583417766901000000000000000000000000000000000000000000000000000000000000000000000000000000000000002405800000000000000000000000000	00000000000000000000000SEBASTIAO FELIPE DE MELO PINTO	000208
10202678694000227924800310592	1 0014455397 2	00804352	109008043523	I10310125144553972	00804352	31012500000000229783417766901000000000000000000000000000000000000000000000000000000000000000000000000000000000000002297800000000000000000000000000	00000000000000000000000SEBASTIAO FELIPE DE MELO PINTO	000209
10202678694000227924800310592	1 0014455399 2	00804354	109008043549	I10310125144553992	00804354	31012500000000074093417766901000000000000000000000000000000000000000000000000000000000000000000000000000000000000000740900000000000000000000000000	00000000000000000000000SEBASTIAO FELIPE DE MELO PINTO	000210
10202678694000227924800310592	1 0014455525 2	00804502	109008045023	I10310125144555252	00804502	31012500000000157223417766901000000000000000000000000000000000000000000000000000000000000000000000000000000000000001572200000000000000000000000000	00000000000000000000000F L DA SILVA MERCADINHO ME	000211
10202678694000227924800310592	1 0014455539 1	00804516	109008045163	I10310125144555391	00804516	31012500000000156413417766901000000000000000000000000000000000000000000000000000000000000000000000000000000000000001564100000000000000000000000000	00000000000000000000000HILDA CLARICE DOS SANTOS 84655	000212
10202678694000227924800310592	1 0014455739 2	00804603	109008046039	I10310125144557392	00804603	31012500000000120653417766901000000000000000000000000000000000000000000000000000000000000000000000000000000000000001206500000000000000000000000000	00000000000000000000000JOSE FERNANDO DA SILVA ROCHA 4	000213
10202678694000227924800310592	1 0014455741 2	00804605	109008046054	I10310125144557412	00804605	31012500000000098013417766901000000000000000000000000000000000000000000000000000000000000000000000000000000000000000980100000000000000000000000000	00000000000000000000000JOSE FERNANDO DA SILVA ROCHA 4	000214
10202678694000227924800310592	1 0014455223 2	00804673	109008046732	I10310125144552232	00804673	31012500000000611003417766901000000000000000000000000000000000000000000000000000000000000000000000000000000000000006110000000000000000000000000000	00000000000000000000000REJANE ANJOS DA SILVA 05780086	000215
10202678694000227924800310592	1 0014455051 2	00804799	109008047995	I10310125144550512	00804799	31012500000000407433417766901000000000000000000000000000000000000000000000000000000000000000000000000000000000000004074300000000000000000000000000	00000000000000000000000A DA SILVA COMERCIO DE ALIMENT	000216
10202678694000227924800310592	1 0014456463 1	00804852	109008048522	I10310125144564631	00804852	31012500000000603583417766901000000000000000000000000000000000000000000000000000000000000000000000000000000000000006035800000000000000000000000000	00000000000000000000000ELTON CLAUDINO PEREIRA DA SILV	000217
10202678694000227924800310592	1 0014455155 1	00805092	109008050924	I10310125144551551	00805092	31012500000000304883417766901000000000000000000000000000000000000000000000000000000000000000000000000000000000000003048800000000000000000000000000	00000000000000000000000IOHANNES AGUIAR OLIVEIRA	000218
10202678694000227924800310592	1 0014025058 1	00704326	109007043268	I2931012501973137	100704326	27062400000002089563410000001000000000068900000000000000000000000000000000000000000000000000000000000000000000000000000000000000000000000000000000	00000000000000000000000MATEUS SUPERMERCADOS S.A.	000219
10202678694000227924800310592	1 0014108176 1	00720626	109007206261	I2931012502000123	100720626	27082400000039625843410000001000000000068900000000000000000000000000000000000000000000000000000000000000000000000000000000000000000000000000000000	00000000000000000000000NOVO ATACADAO COMERCIO DE ALIM	000220
10202678694000227924800310592	1 0014108178 1	00720627	109007206279	I2931012502000124	100720627	27082400000042978103410000001000000000068900000000000000000000000000000000000000000000000000000000000000000000000000000000000000000000000000000000	00000000000000000000000NOVO ATACADAO COMERCIO DE ALIM	000221
10202678694000227924800310592	1 0014108182 1	00720629	109007206295	I2931012502000126	100720629	27082400000042985213410000001000000000068900000000000000000000000000000000000000000000000000000000000000000000000000000000000000000000000000000000	00000000000000000000000NOVO ATACADO COMERCIO DE ALIME	000222
10202678694000227924800310592	1 0014108184 1	00720630	109007206303	I2931012502000127	100720630	27082400000030580603410000001000000000068900000000000000000000000000000000000000000000000000000000000000000000000000000000000000000000000000000000	00000000000000000000000NOVO ATACADO COMERCIO DE ALIME	000223
10202678694000227924800310592	1 0014108839 1	00720642	109007206428	I2931012502000167	100720642	27082400000044240773410000001000000000068900000000000000000000000000000000000000000000000000000000000000000000000000000000000000000000000000000000	00000000000000000000000NOVO ATACADO COMERCIO DE ALIME	000224
10202678694000227924800310592	1 0014108841 1	00720643	109007206436	I2931012502000168	100720643	27082400000040867603410000001000000000068900000000000000000000000000000000000000000000000000000000000000000000000000000000000000000000000000000000	00000000000000000000000NOVO ATACADO COMERCIO DE ALIME	000225
10202678694000227924800310592	1 0014108843 1	00720644	109007206444	I2931012502000169	100720644	27082400000035362003410000001000000000068900000000000000000000000000000000000000000000000000000000000000000000000000000000000000000000000000000000	00000000000000000000000NOVO ATACADO COMERCIO DE ALIME	000226
10202678694000227924800310592	1 0014108845 1	00720645	109007206451	I2931012502000170	100720645	27082400000029096383410000001000000000068900000000000000000000000000000000000000000000000000000000000000000000000000000000000000000000000000000000	00000000000000000000000NOVO ATACADO COMERCIO DE ALIME	000227
10202678694000227924800310592	1 0014108847 1	00720646	109007206469	I2931012502000171	100720646	27082400000034140433410000001000000000068900000000000000000000000000000000000000000000000000000000000000000000000000000000000000000000000000000000	00000000000000000000000NOVO ATACADO COMERCIO DE ALIME	000228
10202678694000227924800310592	1 0014108849 1	00720647	109007206477	I2931012502000172	100720647	27082400000025725433410000001000000000068900000000000000000000000000000000000000000000000000000000000000000000000000000000000000000000000000000000	00000000000000000000000NOVO ATACADO COMERCIO DE ALIME	000229
9201341          000000000000000	000000000000000	000014640000078768	4093  31/01L		00	0000000000000000000000000000          000000000000000000000000000000012160000022800000052656877		000230
